:100000000C942A000C943F000C943F000C943F0089
:100010000C943F000C943F000C943F000C943F0064
:100020000C943F000C943F000C943F000C943F0054
:100030000C943F000C943F000C943F000C943F0044
:100040000C943F000C943F000C943F000C943F0034
:100050000C943F0011241FBECFE5D8E0DEBFCDBF1A
:1000600010E0A0E6B0E0E4E3F8E002C005900D92F5
:10007000A037B107D9F70E940A040C9418040C9415
:100080000000672B09F07FC0009709F4FEC08130A3
:10009000910509F4FCC08230910509F4FEC083305B
:1000A000910509F402C18430910509F400C185303D
:1000B000910509F402C18630910509F4F2C0873038
:1000C000910509F4FCC08A30910509F4FCC08B301D
:1000D000910509F4FEC08C30910509F4FEC08D3005
:1000E000910509F4FEC08E30910509F4FEC08F30F1
:1000F000910509F4FCC08031910509F4FCC08131FF
:10010000910509F4FEC08431910509F4FEC08531E2
:10011000910509F4FCC08631910509F4FCC08731D2
:10012000910509F4FEC08831910509F4F8C08931C0
:10013000910509F402C18A31910509F4FCC08B31A3
:10014000910509F4FCC08E31910509F4FCC08F3192
:10015000910509F40CC18032910509F406C1813280
:10016000910509F40CC18232910509F406C183326C
:10017000910509F400C18432910509F4FAC085970C
:1001800009F4F1C00895009709F47DC0813091050C
:1001900009F47FC08230910509F47DC08330910558
:1001A00009F481C08430910509F483C0853091053C
:1001B00009F481C08630910509F471C0873091053A
:1001C00009F47FC08A30910509F47FC08B30910516
:1001D00009F47DC08C30910509F47DC08D30910506
:1001E00009F47DC08E30910509F47DC08F309105F2
:1001F00009F47FC08031910509F47FC081319105F8
:1002000009F47DC08431910509F47DC085319105E3
:1002100009F47FC08631910509F47FC087319105CB
:1002200009F483C08831910509F47DC089319105B5
:1002300009F47FC08A31910509F479C08B319105A9
:1002400009F47FC08E31910509F47FC08F3191058B
:1002500009F47FC08032910509F479C0813291059B
:1002600009F47FC08232910509F479C08332910587
:1002700009F473C08432910509F46DC0859709F0C3
:1002800081CF979A0895D89A0895D8980895D998C3
:100290000895D99A0895DA9A0895DA980895DE9A19
:1002A0000895DE980895DB9A0895DB980895DC9808
:1002B0000895DC9A0895DD9A0895DD980895DF98F1
:1002C0000895DF9A0895C0980895C09A0895C19A34
:1002D0000895C1980895C29A0895C2980895C39A3E
:1002E0000895C3980895C49A0895C4980895C59828
:1002F0000895C59A0895C6980895C69A0895C79A0C
:100300000895C7980895A89A0895A8980895A99857
:100310000895A99A0895AA980895AA9A0895AC985C
:100320000895AB980895AC9A0895AB9A0895AE9A43
:100330000895AD9A0895AE980895AD980895AF9830
:100340000895AF9A089590980895909A0895929A72
:100350000895919A0895969A0895959A0895949A71
:100360000895939A0895979808959298089591986A
:100370000895969808959598089594980895939857
:1003800008951F93CF93DF93182FC82FDD27C7FD44
:10039000D095C0FF42C08EE190E061E070E00E9425
:1003A0004100C1FF42C08FE190E061E070E00E9437
:1003B0004100C2FF42C080E290E061E070E00E9434
:1003C0004100C3FF42C081E290E061E070E00E9422
:1003D0004100C4FF42C082E290E061E070E00E9410
:1003E0004100C5FF42C083E290E061E070E00E94FE
:1003F0004100C6FF42C084E290E061E070E00E94EC
:10040000410017FD42C085E290E060E070E00E948C
:100410004100DF91CF911F9108958EE190E060E05F
:1004200070E00E944100C1FDBECF8FE190E060E02E
:1004300070E00E944100C2FDBECF80E290E060E02B
:1004400070E00E944100C3FDBECF81E290E060E019
:1004500070E00E944100C4FDBECF82E290E060E007
:1004600070E00E944100C5FDBECF83E290E060E0F5
:1004700070E00E944100C6FDBECF84E290E060E0E3
:1004800070E00E94410017FFBECF85E290E061E07E
:1004900070E00E944100DF91CF911F9108950F936A
:1004A0001F93182F8AE190E060E070E00E94410005
:1004B000812F0E94C1018BE190E061E070E00E9419
:1004C00041000AEF10E0C8010197F1F78BE190E0DD
:1004D00060E070E00E944100C8010197F1F71F91B0
:1004E0000F91089581E00E944F020895813041F0FC
:1004F000823009F00895862F80540E944F0208959B
:10050000862F80580E944F0208958AE190E060E0B3
:1005100070E00E9441008BE190E060E070E00E949A
:10052000410088E893E10197F1F780E30E944F02D0
:1005300082EE94E00197F1F780E30E944F028AEF88
:1005400090E00197F1F780E30E944F0284EC99E07C
:100550000197F1F788E30E944F028CE00E944F025E
:1005600081E00E944F0286E00E944F0208950F939F
:100570001F93182F8AE190E061E070E00E94410033
:10058000812F0E94C1018BE190E061E070E00E9448
:1005900041000AEF10E0C8010197F1F78BE190E00C
:1005A00060E070E00E944100C8010197F1F71F91DF
:1005B0000F910895CF93DF93FC018081882339F058
:1005C000EF010E94B702898121968823D1F7DF913C
:1005D000CF9108958CE10E944F02089588E10E9416
:1005E0004F020895CF93DF93C82FDD27C7FDD09525
:1005F000C0FF21C082E290E061E070E00E94410013
:10060000C1FF21C083E290E061E070E00E94410000
:10061000C2FF21C084E290E061E070E00E944100EE
:10062000C3FD21C085E290E060E070E00E944100DF
:10063000DF91CF91089582E290E060E070E00E9447
:100640004100C1FDDFCF83E290E060E070E00E94F6
:100650004100C2FDDFCF84E290E060E070E00E94E4
:100660004100C3FFDFCF85E290E061E070E00E94CF
:100670004100DF91CF9108950F931F93182F8AE1C6
:1006800090E060E070E00E944100812F0E94F20241
:100690008BE190E061E070E00E9441000AEF10E021
:1006A000C8010197F1F78BE190E060E070E00E94F3
:1006B0004100C8010197F1F71F910F91089580E063
:1006C0000E943C0381E00E943C0308951F93813007
:1006D00099F0823011F01F910895162F1054812F38
:1006E00085958595859585950E943C03812F8F7012
:1006F0000E943C031F910895162F1058F0CF80E000
:100700000E94F20288E893E10197F1F783E00E94EA
:100710003C0382EE94E00197F1F783E00E943C03F2
:100720008EEB9AE00197F1F783E00E943C0382E0B0
:100730000E943C0382E00E943C0388E00E943C034C
:1007400080E00E943C038CE00E943C0380E00E9419
:100750003C0386E00E943C030895FF920F931F9391
:10076000F82E8AE190E061E070E00E9441008F2D58
:1007700085958595859585950E94F2028BE190E09F
:1007800061E070E00E9441000AEF10E0C8010197AB
:10079000F1F78BE190E060E070E00E944100C80159
:1007A0000197F1F78F2D8F700E94F2028BE190E09C
:1007B00061E070E00E944100C8010197F1F78BE110
:1007C00090E060E070E00E944100C8010197F1F7FD
:1007D0001F910F91FF900895CF93DF93FC018081CB
:1007E000882339F0EF010E94AD0389812196882387
:1007F000D1F7DF91CF91089581E00E943C038CE016
:100800000E943C03089581E00E943C0388E00E941E
:100810003C0308958FEF81BB84BB0E94850281E079
:1008200061E00E94760280E690E00E94DA02FFCF4B
:04083000F894FFCF6A
:100834004C43442048656C6C6F20576F726C6400A5
:00000001FF
