:100000000C942A000C9447000C9447000C94470071
:100010000C9447000C9447000C9447000C94470044
:100020000C9447000C9447000C9447000C947C00FF
:100030000C9447000C9447000C9447000C94470024
:100040000C9447000C9447000C9447000C94470014
:100050000C94470011241FBECFE5D8E0DEBFCDBF12
:1000600010E0A0E6B0E0E6EFFEE002C005900D92E1
:10007000AE36B107D9F710E0AEE6B0E001C01D9290
:10008000A337B107E1F70E944A010C9479070C9459
:1000900000008130910579F0823091057CF082304A
:1000A000910519F0039721F008958AE08BBB08951C
:1000B00086E08BBB089589E08BBB0895892B09F0FE
:1000C000089585E08BBB0895609162007091630094
:1000D000809164009091650020E030E04AE754E4AC
:1000E0000E943C0420E030E044E754E40E944203D4
:1000F0000E944805CB0108951F920F920FB60F92F0
:100100001124EF92FF920F931F932F933F934F93DE
:100110005F936F937F938F939F93AF93BF93EF936F
:10012000FF938091700090E083709070009731F1A0
:10013000029721F1E0906200F0906300009164006A
:1001400010916500C801B7012AE037ED43E252E49F
:100150000E94180588230CF090C0C801B70120E068
:1001600030E040E85FE30E94150360936200709303
:10017000630080936400909365001FC0E09062006C
:10018000F09063000091640010916500C801B70110
:100190002AE037ED43EA50E40E94E80418160CF414
:1001A00049C08AE097EDA3EAB0E48093620090939F
:1001B0006300A0936400B09365000E946400819581
:1001C00082BF80916E0090916F00837090700E944A
:1001D000490020917000822F8370823008F443C060
:1001E00080916E0090916F00019790936F008093C3
:1001F0006E0080917100909172008639910559F1DD
:1002000001969093720080937100FF91EF91BF91DE
:10021000AF919F918F917F916F915F914F913F919E
:100220002F911F910F91FF90EF900F900FBE0F90A5
:100230001F901895C801B70120E030E040E85FE367
:100240000E94E402609362007093630080936400F4
:1002500090936500B2CF2F5F2093700010927200D0
:1002600010927100D2CF80916E0090916F00019634
:1002700090936F0080936E00BCCF8AE097EDA3E26D
:10028000B2E48093620090936300A0936400B09303
:10029000650093CFBF92CF92DF92EF92FF920F93C0
:1002A0001F938FEF8ABB14BA0E946400819582BFAE
:1002B00085E083BF81E089BF7894109161000F2EA3
:1002C000FAE0CF2EF7EDDF2EF3E2EF2EF2E4FF2E71
:1002D000F02D85E0B82E01E09A9921C08091600050
:1002E0008130D1F71F5F1093610010FF1BC083B7EF
:1002F0008B7F83BF83B78E7F83BFC0926200D09213
:100300006300E0926400F092650010927000109219
:10031000720010927100109260009A9BDFCF0093E0
:100320006000DACF0E946400819582BFB3BEF3CF34
:10033000A0E0B0E0EEE9F1E00C944207DC012B0113
:10034000FA019C91923008F439C1EB018881823026
:1003500008F433C1943069F4843009F02FC1119648
:100360009C9111978981981709F428C1A6E6B0E0FD
:1003700025C1843009F421C18230A9F4923009F0FA
:100380001DC19A01AD0188E0EA010990AE01E901C1
:1003900009929E018150C1F7E201898111969C91D9
:1003A0008923818308C1923009F407C112962D90E8
:1003B0003C901397EB018A819B811496AD90BD9080
:1003C000CD90DC901797EC80FD800E811F8191010C
:1003D000281B390BB90137FF04C066277727621B3A
:1003E000730B603271050CF061C0121613066CF5C8
:1003F00037014801062E04C0969487947794679439
:100400000A94D2F721E030E040E050E004C0220F2F
:10041000331F441F551F6A95D2F72150304040408A
:1004200050402E213F214023512321153105410504
:10043000510521F021E030E040E050E079018A01EF
:10044000E628F728082919293CC0232BD1F1260ECC
:10045000371E35014601062E04C096948794779482
:1004600067940A94D2F721E030E040E050E004C005
:10047000220F331F441F551F6A95D2F72150304079
:10048000404050402A213B214C215D21211531055E
:100490004105510521F021E030E040E050E05901F4
:1004A0006A01A628B728C828D9280BC08215930549
:1004B0002CF01C01AA24BB24650103C0EE24FF24F8
:1004C000870111969C91D20111968C91981709F48D
:1004D00045C0992339F0A80197012A193B094C0915
:1004E0005D0906C0A60195012E193F09400B510B6D
:1004F00057FD08C0118233822282248335834683CC
:1005000057831DC081E08183338222828827992707
:10051000DC01821B930BA40BB50B84839583A6830C
:10052000B7830DC0220F331F441F551F248335830B
:1005300046835783828193810197938382832481A9
:10054000358146815781DA01C9010197A109B109B5
:100550008F5F9F4FAF4FBF4328F30BC09183338210
:100560002282EA0CFB1C0C1D1D1DE482F582068311
:10057000178383E08083248135814681578157FF2B
:100580001AC0C901AA2797FDA095BA2F8170907053
:10059000A070B0705695479537952795822B932B71
:1005A000A42BB52B84839583A683B7838281938103
:1005B000019693838283DF0101C0D201CD01CDB7C3
:1005C000DEB7E2E10C945E07A0E2B0E0EAEEF2E012
:1005D0000C944E0769837A838B839C832D833E839F
:1005E0004F835887E9E0EE2EF12CEC0EFD1ECE0174
:1005F0000196B7010E9471068E010F5E1F4FCE015A
:100600000596B8010E9471068A8991E089278A8B34
:10061000C701B801AE01475E5F4F0E9498010E947A
:100620009C05A096E6E00C946A07A0E2B0E0EBE13E
:10063000F3E00C944E0769837A838B839C832D832C
:100640003E834F835887F9E0EF2EF12CEC0EFD1E10
:10065000CE010196B7010E9471068E010F5E1F4FF9
:10066000CE010596B8010E947106C701B801AE011E
:10067000475E5F4F0E9498010E949C05A096E6E0AD
:100680000C946A07A0E2B0E0E8E4F3E00C944207BF
:1006900069837A838B839C832D833E834F83588722
:1006A000CE010196BE01675F7F4F0E947106CE01A9
:1006B0000596BE016F5E7F4F0E947106998592304C
:1006C00088F089898230C8F0943019F4823051F46E
:1006D00004C0843029F4923081F486E690E0C6C0EC
:1006E000923049F420E09A858A89981321E02A877C
:1006F000CE010996BBC0823049F420E09A858A89F0
:10070000981321E02A8BCE014196B0C02D843E84FF
:100710004F8458886D887E888F88988CEE24FF24BB
:100720008701AA24BB24650140E050E060E070E04E
:10073000E0E0F0E0C10181709070892BE9F0E60CF7
:10074000F71C081D191D9A01AB012A0D3B1D4C1DFC
:100750005D1D80E090E0A0E0B0E0E614F70408053D
:10076000190520F481E090E0A0E0B0E0BA01A90111
:10077000480F591F6A1F7B1FAA0CBB1CCC1CDD1C19
:1007800097FE08C081E090E0A0E0B0E0A82AB92A76
:10079000CA2ADB2A3196E032F10549F0660C771C53
:1007A000881C991C5694479437942794C3CFFA8594
:1007B000EA892B893C898B859C85280F391F2E5F00
:1007C0003F4F17C0CA0181709070892B61F0169558
:1007D0000795F794E79480E090E0A0E0B0E8E82A7D
:1007E000F92A0A2B1B2B76956795579547952F5F0E
:1007F0003F4F77FDE7CF0CC0440F551F661F771F93
:1008000017FD4160EE0CFF1C001F111F21503040EE
:10081000403090E0590790E0690790E4790760F371
:100820002B8F3C8FDB01CA018F779070A070B07066
:1008300080349105A105B10561F447FD0AC0E114BA
:10084000F1040105110529F0405C5F4F6F4F7F4FA8
:1008500040781A8EFE1711F081E08A8F4D8F5E8FDF
:100860006F8F78A383E0898FCE0149960E949C0503
:10087000A096E2E10C945E07A8E1B0E0E2E4F4E0C7
:100880000C944A0769837A838B839C832D833E83F0
:100890004F835887B9E0EB2EF12CEC0EFD1ECE01F4
:1008A0000196B7010E9471068E010F5E1F4FCE01A7
:1008B0000596B8010E9471062985223008F47EC091
:1008C0003989323010F4B8017CC08A859A89892729
:1008D0008A87243011F0223031F4231709F06EC0DA
:1008E00066E670E06EC0343039F41D861E861F86C1
:1008F000188A1C861B8604C0323021F484E0898764
:10090000B7015FC02B853C858B899C89281B390BDF
:100910003C872B87ED84FE840F851889AD88BE88BF
:10092000CF88D88CEA14FB040C051D0540F4EE0CAE
:10093000FF1C001F111F215030403C872B8720E0F7
:1009400030E040E050E080E090E0A0E0B0E460E023
:1009500070E0EA14FB040C051D0540F0282B392B30
:100960004A2B5B2BEA18FB080C091D09B695A795C5
:1009700097958795EE0CFF1C001F111F6F5F7F4F2F
:100980006F31710531F7DA01C9018F779070A0706E
:10099000B07080349105A105B10561F427FD0AC04E
:1009A000E114F1040105110529F0205C3F4F4F4F80
:1009B0005F4F20782D873E874F87588BBE01675F3A
:1009C0007F4FCB010E949C056896EAE00C94660775
:1009D000A8E1B0E0EEEEF4E00C944E0769837A8370
:1009E0008B839C832D833E834F83588789E0E82E39
:1009F000F12CEC0EFD1ECE010196B7010E9471068E
:100A00008E010F5E1F4FCE010596B8010E94710640
:100A10008985823040F08989823028F0C701B80189
:100A20000E94E90601C08FEF6896E6E00C946A0721
:100A3000A8E1B0E0EEE1F5E00C944E0769837A831B
:100A40008B839C832D833E834F83588789E0E82ED8
:100A5000F12CEC0EFD1ECE010196B7010E9471062D
:100A60008E010F5E1F4FCE010596B8010E947106E0
:100A70008985823040F08989823028F0C701B80129
:100A80000E94E90601C081E06896E6E00C946A07DE
:100A9000ACE0B0E0EEE4F5E00C94520769837A83B1
:100AA0008B839C83CE010196BE016B5F7F4F0E94BA
:100AB00071068D81823061F1823050F1843021F4F1
:100AC0008E81882351F12EC02F81388537FD20C0BB
:100AD0006E812F3131051CF06623F9F023C08EE1C1
:100AE00090E0821B930B29853A854B855C8504C079
:100AF00056954795379527958A95D2F76623B1F095
:100B000050954095309521953F4F4F4F5F4F0EC008
:100B100020E030E040E050E009C02FEF3FEF4FEF22
:100B20005FE704C020E030E040E050E8B901CA01CE
:100B30002C96E2E00C946E07DF92EF92FF920F93F7
:100B40001F93FC01E480F58006811781D1808081AC
:100B5000823048F480E090E0A0E1B0E0E82AF92A91
:100B60000A2B1B2BA5C0843009F49FC0823021F4CE
:100B7000EE24FF24870105C0E114F10401051105ED
:100B800019F4E0E0F0E096C0628173819FEF623873
:100B900079070CF05BC022E83FEF261B370B2A31A8
:100BA00031052CF020E030E040E050E02AC0B801F0
:100BB000A701022E04C076956795579547950A942C
:100BC000D2F781E090E0A0E0B0E004C0880F991F68
:100BD000AA1FBB1F2A95D2F70197A109B1098E213F
:100BE0009F21A023B1230097A105B10521F081E049
:100BF00090E0A0E0B0E09A01AB01282B392B4A2B02
:100C00005B2BDA01C9018F779070A070B0708034CF
:100C10009105A105B10539F427FF09C0205C3F4FBC
:100C20004F4F5F4F04C0215C3F4F4F4F5F4FE0E09D
:100C3000F0E02030A0E03A07A0E04A07A0E45A071D
:100C400010F0E1E0F0E079018A0127C06038710519
:100C500064F5FB01E158FF4FD801C7018F77907011
:100C6000A070B07080349105A105B10539F4E7FE9C
:100C70000DC080E490E0A0E0B0E004C08FE390E01D
:100C8000A0E0B0E0E80EF91E0A1F1B1F17FF05C009
:100C900016950795F794E794319687E01695079592
:100CA000F794E7948A95D1F705C0EE24FF248701D5
:100CB000EFEFF0E06E2F679566276795902F9F778F
:100CC000D794DD24D7948E2F8695492F462B582F05
:100CD0005D29B701CA011F910F91FF90EF90DF903E
:100CE0000895FC01DB01408151812281622F6F77E1
:100CF00070E0221F2227221F9381892F880F822BC9
:100D0000282F30E0991F9927991F11969C931197CE
:100D100021153105A9F5411551056105710511F43C
:100D200082E037C082E89FEF13969C938E931297D0
:100D30009A01AB0167E0220F331F441F551F6A95CC
:100D4000D1F783E08C930DC0220F331F441F551F32
:100D500012968D919C911397019713969C938E9365
:100D60001297203080E0380780E0480780E4580779
:100D700058F314962D933D934D935C9317970895D4
:100D80002F3F310579F4411551056105710519F4BD
:100D900084E08C93089564FF03C081E08C9312C0BB
:100DA0001C9210C02F57304013963C932E931297ED
:100DB00083E08C9387E0440F551F661F771F8A9549
:100DC000D1F7706414964D935D936D937C93179750
:100DD00008951F93DC01FB019C91923008F447C0F9
:100DE0008081823008F443C0943051F411961C91F4
:100DF000843099F58181682F70E0611B71093FC0D3
:100E0000843021F0923031F48230B9F1818188232D
:100E100089F12DC011961C9111978230F1F08181DA
:100E20001817D9F412962D913C91139782819381D2
:100E30008217930794F028173907BCF014968D9108
:100E40009D910D90BC91A02D2481358146815781C3
:100E5000281739074A075B0718F4112341F00AC025
:100E600082179307A407B50740F4112319F061E036
:100E700070E005C06FEF7FEF02C060E070E0CB0173
:100E80001F9108952F923F924F925F926F927F929F
:100E90008F929F92AF92BF92CF92DF92EF92FF928A
:100EA0000F931F93CF93DF93CDB7DEB7CA1BDB0B36
:100EB0000FB6F894DEBF0FBECDBF09942A883988DB
:100EC00048885F846E847D848C849B84AA84B984E2
:100ED000C884DF80EE80FD800C811B81AA81B981EE
:100EE000CE0FD11D0FB6F894DEBF0FBECDBFED0102
:060EF0000895F894FFCF05
:0E0EF60001010AD723420000000000000000A6
:00000001FF
