:100000000C942A000C9447000C9447000C94470071
:100010000C9447000C9447000C9447000C94470044
:100020000C9447000C9447000C9447000C94470034
:100030000C9447000C9447000C9447000C94470024
:100040000C9447000C9447000C9447000C94470014
:100050000C94470011241FBECFE5D8E0DEBFCDBF12
:1000600010E0A0E6B0E0EEE4F1E002C005900D92F1
:10007000A236B107D9F710E0A2E6B0E001C01D92A8
:10008000A536B107E1F70E9464000C94A5000C941A
:1000900000008130910579F0823091057CF082304A
:1000A000910519F0039721F008958AE08BBB08951C
:1000B00086E08BBB089589E08BBB0895892B09F0FE
:1000C000089585E08BBB08951F93CF93DF938FEF47
:1000D0008ABB14BA2091620030916300C2EED4E072
:1000E00011E09A991CC080916000813031F1C90102
:1000F000837090700E9449008091640080FD12C05E
:1001000020916200309163002F5F3F4F3093630076
:1001100020936200FE013197F1F79A9BE4CF109390
:100120006000DFCF209162003091630021503040A9
:100130003093630020936200EDCF809164008F5F65
:0E0140008093640010926000D2CFF894FFCF3D
:02014E000100AE
:00000001FF
