:100000000C942A000C9447000C9447000C94470071
:100010000C9447000C9447000C9447000C94470044
:100020000C9447000C9447000C9447000C94620415
:100030000C9447000C9447000C9447000C94470024
:100040000C9447000C9447000C9447000C94470014
:100050000C94470011241FBECFE5D8E0DEBFCDBF12
:1000600010E0A0E6B0E0E6E6FAE002C005900D92EE
:10007000A638B107D9F710E0A6E8B0E001C01D929C
:10008000AC38B107E1F70E9412050C9431050C94CD
:100090000000672B09F07FC0009709F4FEC0813093
:1000A000910509F4FCC08230910509F4FEC083304B
:1000B000910509F402C18430910509F400C185302D
:1000C000910509F402C18630910509F4F2C0873028
:1000D000910509F4FCC08A30910509F4FCC08B300D
:1000E000910509F4FEC08C30910509F4FEC08D30F5
:1000F000910509F4FEC08E30910509F4FEC08F30E1
:10010000910509F4FCC08031910509F4FCC08131EE
:10011000910509F4FEC08431910509F4FEC08531D2
:10012000910509F4FCC08631910509F4FCC08731C2
:10013000910509F4FEC08831910509F4F8C08931B0
:10014000910509F402C18A31910509F4FCC08B3193
:10015000910509F4FCC08E31910509F4FCC08F3182
:10016000910509F40CC18032910509F406C1813270
:10017000910509F40CC18232910509F406C183325C
:10018000910509F400C18432910509F4FAC08597FC
:1001900009F4F1C00895009709F47DC081309105FC
:1001A00009F47FC08230910509F47DC08330910548
:1001B00009F481C08430910509F483C0853091052C
:1001C00009F481C08630910509F471C0873091052A
:1001D00009F47FC08A30910509F47FC08B30910506
:1001E00009F47DC08C30910509F47DC08D309105F6
:1001F00009F47DC08E30910509F47DC08F309105E2
:1002000009F47FC08031910509F47FC081319105E7
:1002100009F47DC08431910509F47DC085319105D3
:1002200009F47FC08631910509F47FC087319105BB
:1002300009F483C08831910509F47DC089319105A5
:1002400009F47FC08A31910509F479C08B31910599
:1002500009F47FC08E31910509F47FC08F3191057B
:1002600009F47FC08032910509F479C0813291058B
:1002700009F47FC08232910509F479C08332910577
:1002800009F473C08432910509F46DC0859709F0B3
:1002900081CF979A0895D89A0895D8980895D998B3
:1002A0000895D99A0895DA9A0895DA980895DE9A09
:1002B0000895DE980895DB9A0895DB980895DC98F8
:1002C0000895DC9A0895DD9A0895DD980895DF98E1
:1002D0000895DF9A0895C0980895C09A0895C19A24
:1002E0000895C1980895C29A0895C2980895C39A2E
:1002F0000895C3980895C49A0895C4980895C59818
:100300000895C59A0895C6980895C69A0895C79AFB
:100310000895C7980895A89A0895A8980895A99847
:100320000895A99A0895AA980895AA9A0895AC984C
:100330000895AB980895AC9A0895AB9A0895AE9A33
:100340000895AD9A0895AE980895AD980895AF9820
:100350000895AF9A089590980895909A0895929A62
:100360000895919A0895969A0895959A0895949A61
:100370000895939A0895979808959298089591985A
:100380000895969808959598089594980895939847
:1003900008951F93CF93DF93182FC82FDD27C7FD34
:1003A000D095C0FF42C08EE190E061E070E00E9415
:1003B0004900C1FF42C08FE190E061E070E00E941F
:1003C0004900C2FF42C080E290E061E070E00E941C
:1003D0004900C3FF42C081E290E061E070E00E940A
:1003E0004900C4FF42C082E290E061E070E00E94F8
:1003F0004900C5FF42C083E290E061E070E00E94E6
:100400004900C6FF42C084E290E061E070E00E94D3
:10041000490017FD42C085E290E060E070E00E9474
:100420004900DF91CF911F9108958EE190E060E047
:1004300070E00E944900C1FDBECF8FE190E060E016
:1004400070E00E944900C2FDBECF80E290E060E013
:1004500070E00E944900C3FDBECF81E290E060E001
:1004600070E00E944900C4FDBECF82E290E060E0EF
:1004700070E00E944900C5FDBECF83E290E060E0DD
:1004800070E00E944900C6FDBECF84E290E060E0CB
:1004900070E00E94490017FFBECF85E290E061E066
:1004A00070E00E944900DF91CF911F9108950F9352
:1004B0001F93182F8AE190E060E070E00E944900ED
:1004C000812F0E94C9018BE190E061E070E00E9401
:1004D000490000ED17E0C8010197F1F78BE190E0CA
:1004E00060E070E00E944900C8010197F1F71F9198
:1004F0000F91089581E00E9457020895813041F0E4
:10050000823009F00895862F80540E945702089582
:10051000862F80580E94570208958AE190E060E09B
:1005200070E00E9449008BE190E060E070E00E9482
:10053000490080E49CE90197F1F780E30E945702AB
:1005400080E197E20197F1F780E30E94570280ED86
:1005500097E00197F1F780E30E94570280E29EE462
:100560000197F1F788E30E9457028CE00E9457023E
:1005700081E00E94570286E00E94570208950F937F
:100580001F93182F8AE190E061E070E00E9449001B
:10059000812F0E94C9018BE190E061E070E00E9430
:1005A000490000ED17E0C8010197F1F78BE190E0F9
:1005B00060E070E00E944900C8010197F1F71F91C7
:1005C0000F910895CF93DF93FC018081882339F048
:1005D000EF010E94BF02898121968823D1F7DF9124
:1005E000CF9108958CE10E945702089588E10E94FE
:1005F00057020895CF93DF93C82FDD27C7FDD0950D
:10060000C0FF21C082E290E061E070E00E944900FA
:10061000C1FF21C083E290E061E070E00E944900E8
:10062000C2FF21C084E290E061E070E00E944900D6
:10063000C3FD21C085E290E060E070E00E944900C7
:10064000DF91CF91089582E290E060E070E00E9437
:100650004900C1FDDFCF83E290E060E070E00E94DE
:100660004900C2FDDFCF84E290E060E070E00E94CC
:100670004900C3FFDFCF85E290E061E070E00E94B7
:100680004900DF91CF9108950F931F93182F8AE1AE
:1006900090E060E070E00E944900812F0E94FA0221
:1006A0008BE190E061E070E00E94490000ED17E00E
:1006B000C8010197F1F78BE190E060E070E00E94E3
:1006C0004900C8010197F1F71F910F91089580E04B
:1006D0000E94440381E00E94440308951F938130E7
:1006E00099F0823011F01F910895162F1054812F28
:1006F00085958595859585950E944403812F8F70FA
:100700000E9444031F910895162F1058F0CF80E0E7
:100710000E94FA0280E49CE90197F1F783E00E94CD
:10072000440380E197E20197F1F783E00E944403DC
:1007300080EF95E50197F1F783E00E94440382E0A2
:100740000E94440382E00E94440388E00E94440324
:1007500080E00E9444038CE00E94440380E00E94F9
:10076000440386E00E9444030895FF920F931F9371
:10077000F82E8AE190E061E070E00E9449008F2D40
:1007800085958595859585950E94FA028BE190E087
:1007900061E070E00E94490000ED17E0C801019798
:1007A000F1F78BE190E060E070E00E944900C80141
:1007B0000197F1F78F2D8F700E94FA028BE190E084
:1007C00061E070E00E944900C8010197F1F78BE1F8
:1007D00090E060E070E00E944900C8010197F1F7E5
:1007E0001F910F91FF900895CF93DF93FC018081BB
:1007F000882339F0EF010E94B5038981219688236F
:10080000D1F7DF91CF91089581E00E9444038CE0FD
:100810000E944403089581E00E94440388E00E94FE
:10082000440308958130910579F0823091057CF080
:100830008230910519F0039721F008958AE088BB72
:10084000089586E088BB089589E088BB0895892BC8
:1008500009F0089585E088BB08951ABA80E487B945
:1008600087E886B9089597B18770987F892B87B9F3
:10087000369A3699FECF24B135B1C9010895EF9269
:10088000FF921F93CF93DF9310E0C0E0D0E081E0B0
:10089000E82EF12C8C2F0E9433048B3040F0C701DE
:1008A0000C2E02C0880F991F0A94E2F7182B21968C
:1008B000C530D10579F7812FDF91CF911F91FF903E
:1008C000EF9008951F920F920FB60F9211242F935D
:1008D0003F934F935F936F937F938F939F93AF93C8
:1008E000BF93EF93FF9381EB82BF8091860090913D
:1008F0008700837090700E9412048091880090910C
:100900008900892BD1F08091860090918700019712
:100910009093870080938600FF91EF91BF91AF91F4
:100920009F918F917F916F915F914F913F912F9107
:100930000F900FBE0F901F90189580918600909198
:10094000870001969093870080938600E5CF1092F0
:1009500089001092880085E083BF089581E090E0CF
:10096000909389008093880085E083BF089583B7C2
:100970008B7F83BF83B78E7F83BF80E188BB089561
:100980000E943F0420918A0030918B008F3139F111
:100990008031C8F181E090E090938B0080938A00D1
:1009A000109289001092880085E083BF80918A00B0
:1009B00090918B002817390789F0009739F40E942D
:1009C0007A0280E690E00E94E20208950197A1F089
:1009D0000E947A0289E790E00E94E2020895109254
:1009E0008B0010928A0083B78B7F83BF83B78E7F83
:1009F00083BF80E188BBDACF0E947A028DE690E067
:100A00000E94E202089582E090E090938B00809330
:100A10008A0081E090E0909389008093880085E0CF
:100A200083BFC4CF8FEF81BB84BB87BB81EB82BF09
:100A300085E083BF81E089BF789483B78B7F83BFD4
:100A400083B78E7F83BF1ABA80E487B987E886B9F7
:100A50000E948D0281E061E00E947E020E94C0043B
:060A6000FDCFF894FFCF6A
:100A66004D6F766520666F727761726400526F749F
:100A7600617465206C65667400526F7461746520DC
:060A86007269676874004C
:00000001FF
