:100000000C942A000C943F000C943F000C943F0089
:100010000C943F000C943F000C943F000C943F0064
:100020000C943F000C943F000C943F000C943F0054
:100030000C943F000C94CD050C943F000C943F00B1
:100040000C943F000C943F000C943F000C943F0034
:100050000C943F0011241FBECFE5D8E0DEBFCDBF1A
:1000600011E0A0E6B0E0E4E7F9E102C005900D92EE
:10007000A238B107D9F70E94A8050C94B80C0C94CB
:100080000000672B09F07FC0009709F4FEC08130A3
:10009000910509F4FCC08230910509F4FEC083305B
:1000A000910509F402C18430910509F400C185303D
:1000B000910509F402C18630910509F4F2C0873038
:1000C000910509F4FCC08A30910509F4FCC08B301D
:1000D000910509F4FEC08C30910509F4FEC08D3005
:1000E000910509F4FEC08E30910509F4FEC08F30F1
:1000F000910509F4FCC08031910509F4FCC08131FF
:10010000910509F4FEC08431910509F4FEC08531E2
:10011000910509F4FCC08631910509F4FCC08731D2
:10012000910509F4FEC08831910509F4F8C08931C0
:10013000910509F402C18A31910509F4FCC08B31A3
:10014000910509F4FCC08E31910509F4FCC08F3192
:10015000910509F40CC18032910509F406C1813280
:10016000910509F40CC18232910509F406C183326C
:10017000910509F400C18432910509F4FAC085970C
:1001800009F4F1C00895009709F47DC0813091050C
:1001900009F47FC08230910509F47DC08330910558
:1001A00009F481C08430910509F483C0853091053C
:1001B00009F481C08630910509F471C0873091053A
:1001C00009F47FC08A30910509F47FC08B30910516
:1001D00009F47DC08C30910509F47DC08D30910506
:1001E00009F47DC08E30910509F47DC08F309105F2
:1001F00009F47FC08031910509F47FC081319105F8
:1002000009F47DC08431910509F47DC085319105E3
:1002100009F47FC08631910509F47FC087319105CB
:1002200009F483C08831910509F47DC089319105B5
:1002300009F47FC08A31910509F479C08B319105A9
:1002400009F47FC08E31910509F47FC08F3191058B
:1002500009F47FC08032910509F479C0813291059B
:1002600009F47FC08232910509F479C08332910587
:1002700009F473C08432910509F46DC0859709F0C3
:1002800081CF979A0895D89A0895D8980895D998C3
:100290000895D99A0895DA9A0895DA980895DE9A19
:1002A0000895DE980895DB9A0895DB980895DC9808
:1002B0000895DC9A0895DD9A0895DD980895DF98F1
:1002C0000895DF9A0895C0980895C09A0895C19A34
:1002D0000895C1980895C29A0895C2980895C39A3E
:1002E0000895C3980895C49A0895C4980895C59828
:1002F0000895C59A0895C6980895C69A0895C79A0C
:100300000895C7980895A89A0895A8980895A99857
:100310000895A99A0895AA980895AA9A0895AC985C
:100320000895AB980895AC9A0895AB9A0895AE9A43
:100330000895AD9A0895AE980895AD980895AF9830
:100340000895AF9A089590980895909A0895929A72
:100350000895919A0895969A0895959A0895949A71
:100360000895939A0895979808959298089591986A
:100370000895969808959598089594980895939857
:1003800008951F93CF93DF93182FC82FDD27C7FD44
:10039000D095C0FF42C08AE090E061E070E00E942A
:1003A0004100C1FF42C08BE090E061E070E00E943C
:1003B0004100C2FF42C08CE090E061E070E00E942A
:1003C0004100C3FF42C08DE090E061E070E00E9418
:1003D0004100C4FF42C08EE090E061E070E00E9406
:1003E0004100C5FF42C08FE090E061E070E00E94F4
:1003F0004100C6FF42C080E190E061E070E00E94F1
:10040000410017FD42C081E190E060E070E00E9491
:100410004100DF91CF911F9108958AE090E060E064
:1004200070E00E944100C1FDBECF8BE090E060E033
:1004300070E00E944100C2FDBECF8CE090E060E021
:1004400070E00E944100C3FDBECF8DE090E060E00F
:1004500070E00E944100C4FDBECF8EE090E060E0FD
:1004600070E00E944100C5FDBECF8FE090E060E0EB
:1004700070E00E944100C6FDBECF80E190E060E0E8
:1004800070E00E94410017FFBECF81E190E061E083
:1004900070E00E944100DF91CF911F9108950F936A
:1004A0001F93182F86E090E060E070E00E9441000A
:1004B000812F0E94C10187E090E061E070E00E941E
:1004C000410000EA1FE0C8010197F1F787E090E0E2
:1004D00060E070E00E944100C8010197F1F71F91B0
:1004E0000F91089581E00E944F020895813041F0FC
:1004F000823009F00895862F80540E944F0208959B
:10050000862F80580E944F02089586E090E060E0B8
:1005100070E00E94410087E090E060E070E00E949F
:10052000410028EC30E040E951E0CA010197F1F7C1
:1005300021503040D1F780E30E944F0280E29EE4D8
:100540000197F1F780E30E944F0280EA9FE0019754
:10055000F1F780E30E944F0280E49CE90197F1F7F4
:1005600088E30E944F028CE00E944F0281E00E94CB
:100570004F0286E00E944F0208950F931F93182F99
:1005800086E090E061E070E00E944100812F0E94CF
:10059000C10187E090E061E070E00E94410000EA64
:1005A0001FE0C8010197F1F787E090E060E070E09C
:1005B0000E944100C8010197F1F71F910F91089522
:1005C000CF93DF93FC018081882339F0EF010E94F3
:1005D000BD02898121968823D1F7DF91CF910895BB
:1005E0008CE10E944F02089588E10E944F02089515
:1005F000CF93DF93C82FDD27C7FDD095C0FF21C063
:100600008EE090E061E070E00E944100C1FF21C0F7
:100610008FE090E061E070E00E944100C2FF21C0E5
:1006200080E190E061E070E00E944100C3FD21C0E4
:1006300081E190E060E070E00E944100DF91CF91A5
:1006400008958EE090E060E070E00E944100C1FDFE
:10065000DFCF8FE090E060E070E00E944100C2FDDB
:10066000DFCF80E190E060E070E00E944100C3FFD6
:10067000DFCF81E190E061E070E00E944100DF9116
:10068000CF9108950F931F93182F86E090E060E0BC
:1006900070E00E944100812F0E94F80287E090E004
:1006A00061E070E00E94410000EA1FE0C80101978C
:1006B000F1F787E090E060E070E00E944100C8013F
:1006C0000197F1F71F910F91089580E00E94420376
:1006D00081E00E94420308951F93813099F0823097
:1006E00011F01F910895162F1054812F859585952F
:1006F000859585950E944203812F8F700E94420349
:100700001F910895162F1058F0CF80E00E94F80234
:1007100028EC30E040E951E0CA010197F1F721509F
:100720003040D1F783E00E94420380E29EE40197CB
:10073000F1F783E00E94420380EE9BEA0197F1F714
:1007400083E00E94420382E00E94420382E00E9412
:10075000420388E00E94420380E00E9442038CE052
:100760000E94420380E00E94420386E00E9442030E
:100770000895FF920F931F93F82E86E090E061E0BA
:1007800070E00E9441008F2D859585958595859512
:100790000E94F80287E090E061E070E00E94410072
:1007A00000EA1FE0C8010197F1F787E090E060E000
:1007B00070E00E944100C8010197F1F78F2D8F7002
:1007C0000E94F80287E090E061E070E00E94410042
:1007D000C8010197F1F787E090E060E070E00E94C7
:1007E0004100C8010197F1F71F910F91FF90089503
:1007F000CF93DF93FC018081882339F0EF010E94C1
:10080000B903898121968823D1F7DF91CF9108958B
:1008100081E00E9442038CE00E944203089581E03F
:100820000E94420388E00E94420308958FE084BB47
:100830008FEF85BB0895AF92BF92CF92DF92EF9278
:10084000FF920F931F9380E785BB6091790070E062
:1008500080E090E00E94CE095B016C0120E030E076
:100860004AE755E40E94F0077B018C0120E030E06C
:1008700040E85FE30E944A0988230CF43BC0C801AA
:10088000B70120E03FEF4FE757E40E94EA0818164F
:10089000B4F0C801B7010E941A06CB010197F1F725
:1008A00083B390E08077803719F1892F1F910F91E2
:1008B000FF90EF90DF90CF90BF90AF900895C6016A
:1008C000B50120E030E040E251E40E94F0070E94D0
:1008D0001A06CB01672B21F320E931E0F9013197AA
:1008E000F1F70197D9F783B390E080778037E9F685
:1008F00091E0DBCF61E070E0D0CFAF92BF92CF92BA
:10090000DF92EF92FF920F931F9380E785BB609178
:10091000790070E080E090E00E94CE095B016C01FC
:1009200020E030E04AE755E40E94F0077B018C01AB
:1009300020E030E040E85FE30E944A0988230CF49D
:1009400049C0C801B70120E03FEF4FE757E40E94DC
:10095000EA0818162CF1C801B7010E941A06CB014B
:100960000197F1F783B38077803791F128EC30E07D
:1009700040E951E0CA010197F1F721503040D1F729
:1009800083B390E08077803709F091E0892F1F9141
:100990000F91FF90EF90DF90CF90BF90AF900895B0
:1009A000C601B50120E030E040E251E40E94F007CA
:1009B0000E941A06CB01672BA9F220E931E0F90168
:1009C0003197F1F70197D9F783B38077803771F6C4
:1009D00090E0DCCF61E070E0C2CF2F923F924F9267
:1009E0005F926F927F928F929F92AF92BF92CF92BF
:1009F000DF92EF92FF920F931F93DF93CF9300D07C
:100A00000F92CDB7DEB70E947D04882309F48FC012
:100A10006091790070E080E090E00E94CE092B01A7
:100A20003C0120E030E04AE755E40E94F0077B01FA
:100A30008C010E941A066983A72E2CE6C22E20E0A4
:100A4000D22EBB241B821A8291E0292E312C80E900
:100A5000882E81E0982EC1010A8002C0880F991F5C
:100A60000A94E2F7809585BBC801B70120E030E029
:100A700040E85FE30E944A0987FD56C0C801B701FC
:100A800020E03FEF4FE757E40E94EA081816C4F150
:100A900089819A2D9C01C9010197F1F79C9902C0A7
:100AA000F601B0809D9902C0F601B1809E9902C006
:100AB000F601B2808A819B8101969B838A83E3E061
:100AC000F0E0CE0EDF1E049731F60E941B0488234F
:100AD000E1F38B2D0F900F900F90CF91DF911F912D
:100AE0000F91FF90EF90DF90CF90BF90AF909F90CD
:100AF0008F907F906F905F904F903F902F900895D0
:100B0000C301B20120E030E040E251E40E94F0076E
:100B10000E941A06CB01672B09F4C0CFF40131976C
:100B2000F1F70197D9F7BACF21E030E0B4CFBB2479
:100B3000BA94CFCF10BC87E689B98AB188698AB9DF
:100B400080B5866880BD08955D9BFECF8CB9089501
:100B50000F931F938FEF87BB8ABB78940E94850207
:100B600080E061E00E9476028FE084BB8FEF85BB5E
:100B70000E949A0511E002E00E94ED048F3FE1F32C
:100B8000805D813331F08233B9F75D9BFECF0CB9C4
:100B9000F3CF5D9BFECF1CB9EFCF1F920F920FB624
:100BA0000F9211240F931F932F933F934F935F93B3
:100BB0006F937F938F939F93AF93BF93EF93FF9325
:100BC000DF93CF93CDB7DEB72A97DEBFCDBF8CB111
:100BD00090E08E010F5F1F4FB8014AE050E00E9485
:100BE000730C0E94720281E061E00E94760280E64E
:100BF00090E00E94E00282E061E00E947602C8017B
:100C00000E94E0022A96DEBFCDBFCF91DF91FF9117
:100C1000EF91BF91AF919F918F917F916F915F9174
:100C20004F913F912F911F910F910F900FBE0F90F9
:100C30001F901895EF92FF920F931F937B018C01E9
:100C400020E030E040E05FE40E941A0988238CF045
:100C5000C801B70120E030E040E05FE40E94920765
:100C60000E947A099B01AC0120503040404050481E
:100C700006C0C801B7010E947A099B01AC01B90105
:100C8000CA011F910F91FF90EF900895A0E0B0E08E
:100C9000ECE4F6E00C943C0CDC012B01FA019C9195
:100CA000923008F439C1EB018881823008F433C1F5
:100CB000943069F4843009F02FC111969C911197FA
:100CC0008981981709F428C1AAE7B0E025C18430CA
:100CD00009F421C18230A9F4923009F01DC19A01B2
:100CE000AD0188E0EA010990AE01E90109929E0197
:100CF0008150C1F7E201898111969C9189238183FA
:100D000008C1923009F407C112962D903C901397B8
:100D1000EB018A819B811496AD90BD90CD90DC90C3
:100D20001797EC80FD800E811F819101281B390BE4
:100D3000B90137FF04C066277727621B730B603247
:100D400071050CF061C0121613066CF537014801ED
:100D5000062E04C096948794779467940A94D2F7E9
:100D600021E030E040E050E004C0220F331F441F78
:100D7000551F6A95D2F721503040404050402E21F7
:100D80003F2140235123211531054105510521F013
:100D900021E030E040E050E079018A01E628F728C0
:100DA000082919293CC0232BD1F1260E371E350105
:100DB0004601062E04C096948794779467940A940B
:100DC000D2F721E030E040E050E004C0220F331FB2
:100DD000441F551F6A95D2F7215030404040504083
:100DE0002A213B214C215D21211531054105510569
:100DF00021F021E030E040E050E059016A01A628EE
:100E0000B728C828D9280BC0821593052CF01C01DF
:100E1000AA24BB24650103C0EE24FF248701119698
:100E20009C91D20111968C91981709F445C0992391
:100E300039F0A80197012A193B094C095D0906C040
:100E4000A60195012E193F09400B510B57FD08C013
:100E500011823382228224833583468357831DC0C7
:100E600081E081833382228288279927DC01821BDB
:100E7000930BA40BB50B84839583A683B7830DC016
:100E8000220F331F441F551F248335834683578306
:100E90008281938101979383828324813581468166
:100EA0005781DA01C9010197A109B1098F5F9F4FED
:100EB000AF4FBF4328F30BC0918333822282EA0CE9
:100EC000FB1C0C1D1D1DE482F5820683178383E045
:100ED0008083248135814681578157FF1AC0C9011B
:100EE000AA2797FDA095BA2F81709070A070B0705E
:100EF0005695479537952795822B932BA42BB52B89
:100F000084839583A683B78382819381019693839B
:100F10008283DF0101C0D201CD01CDB7DEB7E2E1AE
:100F20000C94580CA0E2B0E0E8E9F7E00C94480C0F
:100F300069837A838B839C832D833E834F83588779
:100F4000E9E0EE2EF12CEC0EFD1ECE010196B7016C
:100F50000E946B0B8E010F5E1F4FCE010596B801EC
:100F60000E946B0B8A8991E089278A8BC701B8019F
:100F7000AE01475E5F4F0E9446060E94960AA09609
:100F8000E6E00C94640CA0E2B0E0E9ECF7E00C942D
:100F9000480C69837A838B839C832D833E834F83A4
:100FA0005887F9E0EF2EF12CEC0EFD1ECE010196D4
:100FB000B7010E946B0B8E010F5E1F4FCE0105968D
:100FC000B8010E946B0BC701B801AE01475E5F4FCD
:100FD0000E9446060E94960AA096E6E00C94640CD5
:100FE000A0E2B0E0E6EFF7E00C943C0C69837A8372
:100FF0008B839C832D833E834F835887CE0101963C
:10100000BE01675F7F4F0E946B0BCE010596BE014C
:101010006F5E7F4F0E946B0B9985923088F08989B3
:101020008230C8F0943019F4823051F404C0843016
:1010300029F4923081F48AE790E0C6C0923049F4F6
:1010400020E09A858A89981321E02A87CE010996A3
:10105000BBC0823049F420E09A858A89981321E048
:101060002A8BCE014196B0C02D843E844F8458888F
:101070006D887E888F88988CEE24FF248701AA24AF
:10108000BB24650140E050E060E070E0E0E0F0E0AB
:10109000C10181709070892BE9F0E60CF71C081DE6
:1010A000191D9A01AB012A0D3B1D4C1D5D1D80E0F1
:1010B00090E0A0E0B0E0E614F7040805190520F47C
:1010C00081E090E0A0E0B0E0BA01A901480F591F0B
:1010D0006A1F7B1FAA0CBB1CCC1CDD1C97FE08C022
:1010E00081E090E0A0E0B0E0A82AB92ACA2ADB2A71
:1010F0003196E032F10549F0660C771C881C991C8A
:101100005694479437942794C3CFFA85EA892B895C
:101110003C898B859C85280F391F2E5F3F4F17C058
:10112000CA0181709070892B61F016950795F7942C
:10113000E79480E090E0A0E0B0E8E82AF92A0A2BE2
:101140001B2B76956795579547952F5F3F4F77FDFA
:10115000E7CF0CC0440F551F661F771F17FD416076
:10116000EE0CFF1C001F111F21503040403090E05A
:10117000590790E0690790E4790760F32B8F3C8F63
:10118000DB01CA018F779070A070B0708034910538
:10119000A105B10561F447FD0AC0E114F1040105A0
:1011A000110529F0405C5F4F6F4F7F4F40781A8EDA
:1011B000FE1711F081E08A8F4D8F5E8F6F8F78A3BD
:1011C00083E0898FCE0149960E94960AA096E2E1BB
:1011D0000C94580CA8E1B0E0E0EFF8E00C94480C57
:1011E00069837A838B839C832D833E834F835887C7
:1011F00089E0E82EF12CEC0EFD1ECE010196B70120
:101200000E946B0B8E010F5E1F4FCE010596B80139
:101210000E946B0B8985823040F08989823028F0EA
:10122000C701B8010E94E30B01C08FEF6896E6E0AA
:101230000C94640CA8E1B0E0E0E2F9E00C94480CF6
:1012400069837A838B839C832D833E834F83588766
:1012500089E0E82EF12CEC0EFD1ECE010196B701BF
:101260000E946B0B8E010F5E1F4FCE010596B801D9
:101270000E946B0B8985823040F08989823028F08A
:10128000C701B8010E94E30B01C08FEF6896E6E04A
:101290000C94640CA8E1B0E0E0E5F9E00C94480C93
:1012A00069837A838B839C832D833E834F83588706
:1012B00089E0E82EF12CEC0EFD1ECE010196B7015F
:1012C0000E946B0B8E010F5E1F4FCE010596B80179
:1012D0000E946B0B8985823040F08989823028F02A
:1012E000C701B8010E94E30B01C081E06896E6E007
:1012F0000C94640CACE0B0E0E0E8F9E00C944C0C29
:1013000069837A838B839C83CE010196BE016B5FD8
:101310007F4F0E946B0B8D81823061F1823050F1E2
:10132000843021F48E81882351F12EC02F8138859D
:1013300037FD20C06E812F3131051CF06623F9F096
:1013400023C08EE190E0821B930B29853A854B8563
:101350005C8504C056954795379527958A95D2F7B1
:101360006623B1F050954095309521953F4F4F4FF2
:101370005F4F0EC020E030E040E050E009C02FEFAA
:101380003FEF4FEF5FE704C020E030E040E050E87F
:10139000B901CA012C96E2E00C94680CA8E0B0E018
:1013A000E4EDF9E00C94440C7B018C0161157105AE
:1013B0008105910519F482E0898360C083E0898307
:1013C0008EE1C82ED12CDC82CB82ED82FE820F838F
:1013D0001887C801B7010E94470AFC013197F7FF3F
:1013E0003BC0222733272E1B3F0B57016801022EDB
:1013F00004C0D694C794B794A7940A94D2F740E057
:1014000050E060E070E081E090E0A0E0B0E004C077
:10141000880F991FAA1FBB1F2A95D2F70197A10910
:10142000B1098E219F21A023B1230097A105B10509
:1014300021F041E050E060E070E04A295B296C292E
:101440007D294D835E836F8378878EE190E08E1BCC
:101450009F0B9C838B8312C0309781F00E2E04C0AB
:10146000EE0CFF1C001F111F0A94D2F7ED82FE82C2
:101470000F831887CE1ADF0ADC82CB821A82CE0154
:1014800001960E94960A2896EAE00C94600CEF926E
:10149000FF920F931F937B018C0180E0E81680E0A0
:1014A000F80681E0080780E0180788F48FEFE81657
:1014B000F1040105110531F028F088E090E0A0E08A
:1014C000B0E017C080E090E0A0E0B0E012C080E0A3
:1014D000E81680E0F80680E0080781E0180728F0A9
:1014E00088E190E0A0E0B0E004C080E190E0A0E0FE
:1014F000B0E020E230E040E050E0281B390B4A0B1E
:101500005B0B04C016950795F794E7948A95D2F77C
:10151000F701EE57FF4F8081281B3109410951091E
:10152000C9011F910F91FF90EF900895DF92EF9204
:10153000FF920F931F93FC01E480F58006811781D1
:10154000D1808081823048F480E090E0A0E1B0E07A
:10155000E82AF92A0A2B1B2BA5C0843009F49FC066
:10156000823021F4EE24FF24870105C0E114F10448
:101570000105110519F4E0E0F0E096C06281738185
:101580009FEF623879070CF05BC022E83FEF261B23
:10159000370B2A3131052CF020E030E040E050E0FC
:1015A0002AC0B801A701022E04C076956795579509
:1015B00047950A94D2F781E090E0A0E0B0E004C043
:1015C000880F991FAA1FBB1F2A95D2F70197A1095F
:1015D000B1098E219F21A023B1230097A105B10558
:1015E00021F081E090E0A0E0B0E09A01AB01282B6F
:1015F000392B4A2B5B2BDA01C9018F779070A070D1
:10160000B07080349105A105B10539F427FF09C0F8
:10161000205C3F4F4F4F5F4F04C0215C3F4F4F4F07
:101620005F4FE0E0F0E02030A0E03A07A0E04A079A
:10163000A0E45A0710F0E1E0F0E079018A0127C048
:101640006038710564F5FB01E158FF4FD801C7010F
:101650008F779070A070B07080349105A105B105AE
:1016600039F4E7FE0DC080E490E0A0E0B0E004C0F3
:101670008FE390E0A0E0B0E0E80EF91E0A1F1B1F08
:1016800017FF05C016950795F794E794319687E004
:1016900016950795F794E7948A95D1F705C0EE243F
:1016A000FF248701EFEFF0E06E2F679566276795BF
:1016B000902F9F77D794DD24D7948E2F8695492F2E
:1016C000462B582F5D29B701CA011F910F91FF903A
:1016D000EF90DF900895FC01DB0140815181228170
:1016E000622F6F7770E0221F2227221F9381892F9C
:1016F000880F822B282F30E0991F9927991F119668
:101700009C93119721153105A9F5411551056105E6
:10171000710511F482E037C082E89FEF13969C9325
:101720008E9312979A01AB0167E0220F331F441F7B
:10173000551F6A95D1F783E08C930DC0220F331F9C
:10174000441F551F12968D919C91139701971396E4
:101750009C938E931297203080E0380780E04807F2
:1017600080E4580758F314962D933D934D935C9362
:10177000179708952F3F310579F4411551056105FB
:10178000710519F484E08C93089564FF03C081E02F
:101790008C9312C01C9210C02F57304013963C936C
:1017A0002E93129783E08C9387E0440F551F661F9A
:1017B000771F8A95D1F7706414964D935D936D935E
:1017C0007C93179708951F93DC01FB019C91923045
:1017D00008F447C08081823008F443C0943051F44B
:1017E00011961C91843099F58181682F70E0611BFE
:1017F00071093FC0843021F0923031F48230B9F168
:101800008181882389F12DC011961C911197823016
:10181000F1F081811817D9F412962D913C9113970C
:10182000828193818217930794F028173907BCF0BF
:1018300014968D919D910D90BC91A02D24813581A0
:1018400046815781281739074A075B0718F4112387
:1018500041F00AC082179307A407B50740F411238B
:1018600019F061E070E005C06FEF7FEF02C060E04B
:1018700070E0CB011F9108952F923F924F925F929B
:101880006F927F928F929F92AF92BF92CF92DF9290
:10189000EF92FF920F931F93CF93DF93CDB7DEB7F5
:1018A000CA1BDB0B0FB6F894DEBF0FBECDBF099489
:1018B0002A88398848885F846E847D848C849B84E0
:1018C000AA84B984C884DF80EE80FD800C811B81EE
:1018D000AA81B981CE0FD11D0FB6F894DEBF0FBE1D
:1018E000CDBFED010895FB019F01E8944230C4F0A3
:1018F0004532B4F44A3029F497FB1EF49095819553
:101900009F4F642F77270E94A40C805D8A330CF0D0
:10191000895D8193CB010097A1F716F45DE25193A5
:101920001082C9010C94940CDC01FC01672F7191A9
:101930007723E1F7329704C07C916D9370836291B5
:10194000AE17BF07C8F30895AA1BBB1B51E107C020
:10195000AA1FBB1FA617B70710F0A61BB70B881F3F
:10196000991F5A95A9F780959095BC01CD010895CE
:04197000F894FFCF19
:1019740054656D707265747572653A000A000B07E0
:10198400080904050601020300030000000000002A
:10199400000000010202030303030404040404041A
:1019A40004040505050505050505050505050505E5
:1019B40005050606060606060606060606060606C5
:1019C40006060606060606060606060606060606B3
:1019D4000606070707070707070707070707070795
:1019E4000707070707070707070707070707070783
:1019F4000707070707070707070707070707070773
:101A04000707070707070707070707070707070762
:101A14000707080808080808080808080808080844
:101A24000808080808080808080808080808080832
:101A34000808080808080808080808080808080822
:101A44000808080808080808080808080808080812
:101A54000808080808080808080808080808080802
:101A640008080808080808080808080808080808F2
:101A740008080808080808080808080808080808E2
:101A840008080808080808080808080808080808D2
:021A9400080840
:00000001FF
