:100000000C942A000C9434000C9434000C943400AA
:100010000C9434000C9434000C9434000C94340090
:100020000C9434000C9434000C9434000C94340080
:100030000C9434000C9434000C9434000C94340070
:100040000C9434000C9434000C9434000C94340060
:100050000C94340011241FBECFE5D8E0DEBFCDBF25
:100060000E9436000C9454000C9400008FEF87BB64
:10007000D09849E150E06FEFC89B14C028E833E105
:10008000CA010197F1F721503040D1F7C89968BBF8
:1000900028E833E1CA010197F1F721503040D1F748
:0C00A000C89BEACF18BAE8CFF894FFCF55
:00000001FF
