:100000000C942A000C943C000C943C000C943C0092
:100010000C943C000C943C000C943C000C943C0070
:100020000C943C000C9472000C943C000C943C002A
:100030000C943C000C943C000C943C000C943C0050
:100040000C943C000C943C000C943C000C943C0040
:100050000C943C0011241FBECFE5D8E0DEBFCDBF1D
:1000600010E0A0E6B0E001C01D92A136B107E1F7B3
:100070000E94A6000C94BA000C940000843079F120
:10008000853048F0873001F1883080F08830D9F031
:100090008930B1F008958130F9F0813070F082300C
:1000A000A9F08330B9F78FE482BB0895853089F0D9
:1000B000863081F78DE782BB08958FE382BB089578
:1000C0008FE682BB08958FE782BB08958BE582BBE4
:1000D00008958DE682BB089586E082BB089586E68A
:1000E00082BB08951F920F920FB60F9211242F9387
:1000F0003F934F935F936F937F938F939F93AF93B0
:10010000BF93EF93FF93809160008930E0F48F5F9D
:1001100080936000809160000E943E0080E094E047
:100120009DBD8CBDFF91EF91BF91AF919F918F913C
:100130007F916F915F914F913F912F910F900FBEE3
:100140000F901F90189510926000E4CF81E084BB5F
:100150008FEF81BB15BA80E094E09DBD8CBD1FBCC4
:1001600082E08EBD84E089BF7894809160000E9417
:080170003E00FFCFF894FFCF21
:00000001FF
