:100000000C942A000C9434000C9434000C943400AA
:100010000C9434000C9434000C9434000C94340090
:100020000C9434000C9434000C9434000C94340080
:100030000C9434000C9434000C9434000C94340070
:100040000C9434000C9434000C9434000C94340060
:100050000C94340011241FBECFE5D8E0DEBFCDBF25
:100060000E944F000C9463000C94000098B321E0B0
:1000700030E002C0220F331F8A95E2F7922B98BB23
:1000800048E853E169E170E0CB010197F1F7415095
:100090005040D1F788B32095282328BB0895CF93EB
:1000A000DF938FEF87BBD098C89B0BC0C0E0D0E038
:1000B000CE010E9436002196C830D105C9F7C899F3
:0A00C000F5CF18BAF1CFF894FFCF86
:00000001FF
