:100000000C942A000C943C000C943C000C943C0092
:100010000C943C000C943C000C943C000C943C0070
:100020000C943C000C943C000C943C000C943C0060
:100030000C943C000C943C000C943C000C943C0050
:100040000C943C000C943C000C943C000C943C0040
:100050000C943C0011241FBECFE5D8E0DEBFCDBF1D
:1000600010E0A0E6B0E001C01D92A236B107E1F7B2
:100070000E9459000C94A0000C940000813091055E
:1000800079F0823091057CF08230910519F0039768
:1000900021F008958AE08BBB089586E08BBB08951C
:1000A00089E08BBB0895892B09F0089585E08BBB0F
:1000B0000895CF93DF938FEF8ABB14BA80916000CD
:1000C00090916100C2EED4E09A99FECF64E070E0B6
:1000D0000E9479000E943E00809160009091610032
:1000E00001969093610080936000FE013197F1F7D3
:1000F000EBCF97FB092E07260AD077FD04D00CD052
:1001000006D000201AF4709561957F4F0895F6F798
:10011000909581959F4F0895AA1BBB1B51E107C085
:10012000AA1FBB1FA617B70710F0A61BB70B881F87
:10013000991F5A95A9F780959095BC01CD01089516
:04014000F894FFCF61
:00000001FF
