:100000000C942A000C9434000C9434000C943400AA
:100010000C9434000C9434000C9434000C94340090
:100020000C9434000C9434000C9434000C94340080
:100030000C9434000C9434000C9434000C94340070
:100040000C9434000C9434000C9434000C94340060
:100050000C94340011241FBECFE5D8E0DEBFCDBF25
:100060000E9436000C9450000C940000D09A28E8AE
:1000700033E149E150E02115310561F4D89A28E8CF
:1000800033E1CA010197F1F721503040D1F7D898F8
:1000900028E833E1CA010197F1F721503040EBCF56
:0400A000F894FFCF02
:00000001FF
