:100000000C942A000C9447000C9447000C94470071
:100010000C9447000C9447000C9447000C94470044
:100020000C9447000C94F9000C9447000C94AC001D
:100030000C9447000C9447000C9447000C94470024
:100040000C9447000C9447000C9447000C94470014
:100050000C94470011241FBECFE5D8E0DEBFCDBF12
:1000600010E0A0E6B0E0E4EDF2E002C005900D92F1
:10007000A236B107D9F710E0A2E6B0E001C01D92A8
:10008000A936B107E1F70E9426010C9468010C948F
:100090000000843079F1853048F0873001F18830F4
:1000A00080F08830D9F08930B1F008958130F9F0CE
:1000B000813070F08230A9F08330B9F78FE482BBD1
:1000C0000895853089F0863081F78DE782BB0895E9
:1000D0008FE382BB08958FE682BB08958FE782BBD2
:1000E00008958BE582BB08958DE682BB089586E076
:1000F00082BB089586E682BB0895CF93DF93792F64
:10010000C62FD0E0209769F020E030E0972F6AE01A
:1001100070E00E944101862F2F5F3F4F2C173D0753
:10012000ACF3972F6AE070E00E9441010E94490001
:100130008FE085BB45B323E030E02C1B3D0B81E015
:1001400090E002C0880F991F2A95E2F780958423DA
:1001500085BBDF91CF9108951F920F920FB60F923A
:1001600011242F933F934F935F936F937F938F93BC
:100170009F93AF93BF93EF93FF93209165003091CE
:100180006600809167009091680028173907B9F0E0
:100190002F5F3F4F3093660020936500FF91EF91F2
:1001A000BF91AF919F918F917F916F915F914F918F
:1001B0003F912F910F900FBE0F901F901895809137
:1001C000600082BF80916200909163006091640042
:1001D0000E947D0080916400833041F08F5F8093A6
:1001E00064001092660010926500D8CF10926400EF
:1001F000F8CF1F920F920FB60F9211242F938F9367
:100200009F938DEB90EF9DBD8CBD8091620090918E
:10021000630027E28F30920769F0019690936300A4
:10022000809362009F918F912F910F900FBE0F903E
:100230001F90189510926300109262009F918F9109
:100240002F910F900FBE0F901F9018958FE084BBD9
:100250008FEF81BB8091600082BF25E023BF81E0EA
:1002600089BF8DEB90EF9DBD8CBD1FBC2EBD89B7A6
:10027000846089BF789488EE93E061E00E947D00FD
:10028000FFCF97FB092E07260AD077FD04D00CD0AC
:1002900006D000201AF4709561957F4F0895F6F707
:1002A000909581959F4F0895AA1BBB1B51E107C0F4
:1002B000AA1FBB1FA617B70710F0A61BB70B881FF6
:1002C000991F5A95A9F780959095BC01CD01089585
:0402D000F894FFCFD0
:0202D4009E008A
:00000001FF
