:100000000C942A000C9447000C9447000C94470071
:100010000C9447000C9459050C9447000C9447002D
:100020000C9447000C9447000C9447000C94470034
:100030000C9447000C9447000C9447000C94470024
:100040000C9447000C9447000C9447000C94470014
:100050000C94470011241FBECFE5D8E0DEBFCDBF12
:1000600010E0A0E6B0E0E8EDF0E102C005900D92EE
:10007000AE36B107D9F710E0AEE6B0E001C01D9290
:10008000A337B107E1F70E9429040C946A080C9485
:100090000000672B09F07FC0009709F4FEC0813093
:1000A000910509F4FCC08230910509F4FEC083304B
:1000B000910509F402C18430910509F400C185302D
:1000C000910509F402C18630910509F4F2C0873028
:1000D000910509F4FCC08A30910509F4FCC08B300D
:1000E000910509F4FEC08C30910509F4FEC08D30F5
:1000F000910509F4FEC08E30910509F4FEC08F30E1
:10010000910509F4FCC08031910509F4FCC08131EE
:10011000910509F4FEC08431910509F4FEC08531D2
:10012000910509F4FCC08631910509F4FCC08731C2
:10013000910509F4FEC08831910509F4F8C08931B0
:10014000910509F402C18A31910509F4FCC08B3193
:10015000910509F4FCC08E31910509F4FCC08F3182
:10016000910509F40CC18032910509F406C1813270
:10017000910509F40CC18232910509F406C183325C
:10018000910509F400C18432910509F4FAC08597FC
:1001900009F4F1C00895009709F47DC081309105FC
:1001A00009F47FC08230910509F47DC08330910548
:1001B00009F481C08430910509F483C0853091052C
:1001C00009F481C08630910509F471C0873091052A
:1001D00009F47FC08A30910509F47FC08B30910506
:1001E00009F47DC08C30910509F47DC08D309105F6
:1001F00009F47DC08E30910509F47DC08F309105E2
:1002000009F47FC08031910509F47FC081319105E7
:1002100009F47DC08431910509F47DC085319105D3
:1002200009F47FC08631910509F47FC087319105BB
:1002300009F483C08831910509F47DC089319105A5
:1002400009F47FC08A31910509F479C08B31910599
:1002500009F47FC08E31910509F47FC08F3191057B
:1002600009F47FC08032910509F479C0813291058B
:1002700009F47FC08232910509F479C08332910577
:1002800009F473C08432910509F46DC0859709F0B3
:1002900081CF979A0895D89A0895D8980895D998B3
:1002A0000895D99A0895DA9A0895DA980895DE9A09
:1002B0000895DE980895DB9A0895DB980895DC98F8
:1002C0000895DC9A0895DD9A0895DD980895DF98E1
:1002D0000895DF9A0895C0980895C09A0895C19A24
:1002E0000895C1980895C29A0895C2980895C39A2E
:1002F0000895C3980895C49A0895C4980895C59818
:100300000895C59A0895C6980895C69A0895C79AFB
:100310000895C7980895A89A0895A8980895A99847
:100320000895A99A0895AA980895AA9A0895AC984C
:100330000895AB980895AC9A0895AB9A0895AE9A33
:100340000895AD9A0895AE980895AD980895AF9820
:100350000895AF9A089590980895909A0895929A62
:100360000895919A0895969A0895959A0895949A61
:100370000895939A0895979808959298089591985A
:100380000895969808959598089594980895939847
:1003900008951F93CF93DF93182FC82FDD27C7FD34
:1003A000D095C0FF42C08EE190E061E070E00E9415
:1003B0004900C1FF42C08FE190E061E070E00E941F
:1003C0004900C2FF42C080E290E061E070E00E941C
:1003D0004900C3FF42C081E290E061E070E00E940A
:1003E0004900C4FF42C082E290E061E070E00E94F8
:1003F0004900C5FF42C083E290E061E070E00E94E6
:100400004900C6FF42C084E290E061E070E00E94D3
:10041000490017FD42C085E290E060E070E00E9474
:100420004900DF91CF911F9108958EE190E060E047
:1004300070E00E944900C1FDBECF8FE190E060E016
:1004400070E00E944900C2FDBECF80E290E060E013
:1004500070E00E944900C3FDBECF81E290E060E001
:1004600070E00E944900C4FDBECF82E290E060E0EF
:1004700070E00E944900C5FDBECF83E290E060E0DD
:1004800070E00E944900C6FDBECF84E290E060E0CB
:1004900070E00E94490017FFBECF85E290E061E066
:1004A00070E00E944900DF91CF911F9108950F9352
:1004B0001F93182F8AE190E060E070E00E944900ED
:1004C000812F0E94C9018BE190E061E070E00E9401
:1004D00049000AEF10E0C8010197F1F78BE190E0C5
:1004E00060E070E00E944900C8010197F1F71F9198
:1004F0000F91089581E00E9457020895813041F0E4
:10050000823009F00895862F80540E945702089582
:10051000862F80580E94570208958AE190E060E09B
:1005200070E00E9449008BE190E060E070E00E9482
:10053000490088E893E10197F1F780E30E945702B0
:1005400082EE94E00197F1F780E30E9457028AEF70
:1005500090E00197F1F780E30E94570284EC99E064
:100560000197F1F788E30E9457028CE00E9457023E
:1005700081E00E94570286E00E94570208950F937F
:100580001F93182F8AE190E061E070E00E9449001B
:10059000812F0E94C9018BE190E061E070E00E9430
:1005A00049000AEF10E0C8010197F1F78BE190E0F4
:1005B00060E070E00E944900C8010197F1F71F91C7
:1005C0000F910895CF93DF93FC018081882339F048
:1005D000EF010E94BF02898121968823D1F7DF9124
:1005E000CF9108958CE10E945702089588E10E94FE
:1005F00057020895CF93DF93C82FDD27C7FDD0950D
:10060000C0FF21C082E290E061E070E00E944900FA
:10061000C1FF21C083E290E061E070E00E944900E8
:10062000C2FF21C084E290E061E070E00E944900D6
:10063000C3FD21C085E290E060E070E00E944900C7
:10064000DF91CF91089582E290E060E070E00E9437
:100650004900C1FDDFCF83E290E060E070E00E94DE
:100660004900C2FDDFCF84E290E060E070E00E94CC
:100670004900C3FFDFCF85E290E061E070E00E94B7
:100680004900DF91CF9108950F931F93182F8AE1AE
:1006900090E060E070E00E944900812F0E94FA0221
:1006A0008BE190E061E070E00E9449000AEF10E009
:1006B000C8010197F1F78BE190E060E070E00E94E3
:1006C0004900C8010197F1F71F910F91089580E04B
:1006D0000E94440381E00E94440308951F938130E7
:1006E00099F0823011F01F910895162F1054812F28
:1006F00085958595859585950E944403812F8F70FA
:100700000E9444031F910895162F1058F0CF80E0E7
:100710000E94FA0288E893E10197F1F783E00E94D2
:10072000440382EE94E00197F1F783E00E944403D2
:100730008EEB9AE00197F1F783E00E94440382E098
:100740000E94440382E00E94440388E00E94440324
:1007500080E00E9444038CE00E94440380E00E94F9
:10076000440386E00E9444030895FF920F931F9371
:10077000F82E8AE190E061E070E00E9449008F2D40
:1007800085958595859585950E94FA028BE190E087
:1007900061E070E00E9449000AEF10E0C801019793
:1007A000F1F78BE190E060E070E00E944900C80141
:1007B0000197F1F78F2D8F700E94FA028BE190E084
:1007C00061E070E00E944900C8010197F1F78BE1F8
:1007D00090E060E070E00E944900C8010197F1F7E5
:1007E0001F910F91FF900895CF93DF93FC018081BB
:1007F000882339F0EF010E94B5038981219688236F
:10080000D1F7DF91CF91089581E00E9444038CE0FD
:100810000E944403089581E00E94440388E00E94FE
:1008200044030895FC01DB0190818C91981719F025
:1008300020E0822F0895918111968C91119798173D
:10084000B9F720E0928112968C91981791F721E0E8
:10085000F0CF8FEF81BB84BB8EEE84BD83E085BD7E
:1008600080E489BF78941092700010927100109209
:1008700072000E948D0281E061E00E947E0280E6AB
:1008800090E00E94E202FFCF0F931F93DF93CF937C
:1008900000D000D0CDB7DEB78E010F5F1F4F00D064
:1008A00000D000D0EDB7FEB73196ADB7BEB7129607
:1008B0001C930E93119729E630E0338322838483BF
:1008C00015820E9492058DB79EB706960FB6F894D2
:1008D0009EBF0FBE8DBFC8010F900F900F900F905D
:1008E000CF91DF911F910F910895EF92FF920F9397
:1008F0001F93DF93CF9300D000D0CDB7DEB77C013C
:10090000DC0112968C9112978731B9F18F5FF70154
:10091000828381E061E00E947E028E010F5F1F4FA3
:1009200000D000D000D0EDB7FEB73196ADB7BEB75E
:1009300012961C930E93119789E690E0938382831D
:10094000D70112968C91848315820E949205EDB78F
:10095000FEB736960FB6F894FEBF0FBEEDBFC801C6
:100960000E94E2020F900F900F900F90CF91DF91B5
:100970001F910F91FF90EF90089512961C92C9CF8E
:10098000EF92FF920F931F93DF93CF9300D000D08D
:10099000CDB7DEB77C01DC0111968C918B33C1F1B0
:1009A0008F5FD70111968C9381E064E00E947E02F4
:1009B0008E010F5F1F4F00D000D000D0EDB7FEB703
:1009C0003196ADB7BEB712961C930E93119789E678
:1009D00090E093838283D70111968C918483158252
:1009E0000E949205EDB7FEB736960FB6F894FEBF9B
:1009F0000FBEEDBFC8010E94E2020F900F900F9052
:100A00000F90CF91DF911F910F91FF90EF9008957C
:100A1000C7010E947504F7011182C6CFEF92FF92C1
:100A20000F931F93DF93CF9300D000D0CDB7DEB7E5
:100A30007C01DC018C918B33B1F18F5FD7018C93FA
:100A400081E067E00E947E028E010F5F1F4F00D0A1
:100A500000D000D0EDB7FEB73196ADB7BEB7129655
:100A60001C930E93119789E690E093838283D701BC
:100A70008C91848315820E949205EDB7FEB736965D
:100A80000FB6F894FEBF0FBEEDBFC8010E94E20290
:100A90000F900F900F900F90CF91DF911F910F91BA
:100AA000FF90EF900895C7010E94C004F7011082E3
:100AB000C7CF1F920F920FB60F9211242F933F931F
:100AC0004F935F936F937F938F939F93AF93BF9356
:100AD000EF93FF9380916E0090916F008A3791059C
:100AE000B1F0019690936F0080936E00FF91EF91AB
:100AF000BF91AF919F918F917F916F915F914F9136
:100B00003F912F910F900FBE0F901F9018958EEE72
:100B100084BD80E790E00E940E0510926F00109255
:100B20006E00E4CFAEE0B0E0E8E9F5E00C944108F7
:100B30000D891E8986E08C831A8309838FEF9FE7D6
:100B40009E838D839E01275E3F4FCE0101966F8964
:100B5000788DA9010E94B6052F813885020F131FD9
:100B6000F80110822E96E4E00C945D08ABE0B0E052
:100B7000ECEBF5E00C9433083C012B015A01FC012D
:100B800017821682838181FD03C06FEF7FEFC6C19C
:100B90009AE0892E1E010894211C311CF301238147
:100BA000F20123FD859123FF81912F01882309F410
:100BB000B2C1853239F423FD859123FF81912F0144
:100BC000853229F490E0B3010E94A907E7CF982F5E
:100BD000FF24EE249924FFE1FF15D0F09B3269F049
:100BE0009C3228F4903259F0933291F40EC09D3229
:100BF00049F0903369F441E024C052E0F52A84E0E2
:100C0000F82A28C098E0F92A25C0E0E1FE2A22C08F
:100C1000F7FC29C0892F80538A3070F4F6FE05C096
:100C2000989C902C1124980E15C0E89CE02C11245F
:100C3000E80EF0E2FF2A0EC09E3229F4F6FC6BC1EA
:100C400040E4F42A07C09C3619F450E8F52A02C0A3
:100C5000983649F4F20123FD959123FF91912F01DC
:100C6000992309F0B8CF892F8554833018F080522A
:100C7000833038F444E050E0A40EB51E5FE359839E
:100C80000FC0933631F0933779F0933509F056C0A1
:100C900020C0F5018081898342E050E0A40EB51E9A
:100CA000610101E010E012C0F501C080D180F6FCC6
:100CB00003C06FEF7FEF02C0692D70E042E050E0AB
:100CC000A40EB51EC6010E949E078C015FE7F522A7
:100CD00014C0F501C080D180F6FC03C06FEF7FEF38
:100CE00002C0692D70E042E050E0A40EB51EC601BE
:100CF0000E9493078C0150E8F52AF3FE07C01AC042
:100D000080E290E0B3010E94A907EA948E2D90E062
:100D100008171907A8F30EC0F601F7FC8591F7FE36
:100D200081916F0190E0B3010E94A907E110EA945C
:100D3000015010400115110579F7EAC0943611F001
:100D4000993669F5F7FE08C0F501208131814281AD
:100D5000538184E090E00AC0F501808191819C017B
:100D6000442737FD4095542F82E090E0A80EB91E2D
:100D70009FE6F92257FF09C050954095309521957F
:100D80003F4F4F4F5F4FE0E8FE2ACA01B901A10172
:100D90002AE030E00E94D507D82ED21840C09537FF
:100DA00029F41F2D1F7E2AE030E01DC01F2D197F62
:100DB0009F3661F0903720F4983509F0ACC00FC031
:100DC000903739F0983709F0A6C004C028E030E029
:100DD0000AC0106114FD146020E130E004C014FD6D
:100DE000166020E132E017FF08C0F50160817181D3
:100DF0008281938144E050E008C0F50180819181B7
:100E0000BC0180E090E042E050E0A40EB51EA101DC
:100E10000E94D507D82ED2188FE7F82EF122F6FEC1
:100E20000BC05EEFF522D91438F4F4FE07C0F2FCD3
:100E300005C08FEEF82202C01D2D01C0192DF4FE51
:100E40000DC0FE01ED0DF11D8081803319F499EE86
:100E5000F92208C01F5FF2FE05C003C08F2D8678FF
:100E600009F01F5F0F2DF3FC14C0F0FE0FC01E151C
:100E700010F09D2C0BC09D2C9E0C911A1E2D06C0AF
:100E800080E290E0B3010E94A9071F5F1E15C0F326
:100E900004C01E1510F4E11A01C0EE2404FF0FC0B7
:100EA00080E390E0B3010E94A90702FF1DC001FD8D
:100EB00003C088E790E00EC088E590E00BC0802F6B
:100EC000867891F001FF02C08BE201C080E2F7FC5E
:100ED0008DE290E0B3010E94A90706C080E390E094
:100EE000B3010E94A9079A94D914C0F3DA94F101CE
:100EF000ED0DF11D808190E0B3010E94A907DD2076
:100F0000A9F706C080E290E0B3010E94A907EA9425
:100F1000EE20C1F743CEF30166817781CB012B969A
:100F2000E2E10C944F08FC01059061507040011003
:100F3000D8F7809590958E0F9F1F0895FC01615002
:100F4000704001900110D8F7809590958E0F9F1FEB
:100F500008950F931F93CF93DF938C01EB018B8147
:100F600081FF1BC082FF0DC02E813F818C819D813E
:100F70002817390764F4E881F9810193F983E8833C
:100F800006C0E885F985802F0995892B31F48E817B
:100F90009F8101969F838E8302C00FEF1FEFC801D0
:100FA000DF91CF911F910F910895FA01AA27283060
:100FB00051F1203181F1E8946F936E7F6E5F7F4F26
:100FC0008F4F9F4FAF4FB1E03ED0B4E03CD0670FA2
:100FD000781F891F9A1FA11D680F791F8A1F911DF5
:100FE000A11D6A0F711D811D911DA11D20D009F445
:100FF00068943F912AE0269F11243019305D319387
:10100000DEF6CF010895462F4770405D4193B3E06F
:101010000FD0C9F7F6CF462F4F70405D4A3318F016
:10102000495D31FD4052419302D0A9F7EACFB4E0C7
:10103000A6959795879577956795BA95C9F700977F
:101040006105710508959B01AC010A2E0694579520
:10105000479537952795BA95C9F7620F731F841F77
:10106000951FA01D08952F923F924F925F926F920D
:101070007F928F929F92AF92BF92CF92DF92EF9228
:10108000FF920F931F93CF93DF93CDB7DEB7CA1BA9
:10109000DB0B0FB6F894DEBF0FBECDBF09942A88D4
:1010A000398848885F846E847D848C849B84AA847C
:1010B000B984C884DF80EE80FD800C811B81AA8109
:1010C000B981CE0FD11D0FB6F894DEBF0FBECDBFD4
:0810D000ED010895F894FFCF33
:0E10D80030303A30303A30300025303264008B
:00000001FF
